:100000000A128A1103280310831603130030031801
:1000100001308800031083120313003003180130ED
:10002000880001308800F430F0007E30F1000A12C0
:100030008A11EE270A128A1103108312031300306B
:1000400003180130880002308800F430F0007E3060
:10005000F1000A128A11EE270A128A110310831284
:100060000313003003180130880004308800F43096
:10007000F0007E30F1000A128A11EE270A128A116E
:100080000310831203130030031801308800083076
:100090008800F430F0007E30F1000A128A11EE2759
:1000A0000A128A110310831203130030031801305F
:1000B000880010308800F430F0007E30F1000A1221
:1000C0008A11EE270A128A110310831203130030DB
:1000D00003180130880020308800F430F0007E30B2
:1000E000F1000A128A11EE270A128A1103108312F4
:1000F0000313003003180130880040308800F430CA
:10010000F0007E30F1000A128A11EE270A128A11DD
:10011000031083120313003003180130880080306D
:100120008800F430F0007E30F1000A128A11EE27C8
:0A0130000A128A110A128A1100282F
:100FDC00EF2F0130F0020030031CF103F102FF305F
:100FEC007106031DFB2FFF307006031DFE2FFF2F14
:040FFC00EF2F0800CB
:00000001FF
